{
  "_format": "hh-sol-artifact-1",
  "contractName": "StakeToDone",
  "sourceName": "contracts/StakeToDone.sol",
  "abi": [
    {
      "inputs": [
        {
          "internalType": "address",
          "name": "_stakingToken",
          "type": "address"
        },
        {
          "internalType": "address",
          "name": "_treasury",
          "type": "address"
        }
      ],
      "stateMutability": "nonpayable",
      "type": "constructor"
    },
    {
      "inputs": [],
      "name": "AlreadyClaimed",
      "type": "error"
    },
    {
      "inputs": [],
      "name": "AlreadyCompleted",
      "type": "error"
    },
    {
      "inputs": [],
      "name": "AlreadyProcessed",
      "type": "error"
    },
    {
      "inputs": [],
      "name": "AlreadyStaked",
      "type": "error"
    },
    {
      "inputs": [],
      "name": "DeadlineNotReached",
      "type": "error"
    },
    {
      "inputs": [],
      "name": "DeadlinePassed",
      "type": "error"
    },
    {
      "inputs": [],
      "name": "InvalidDeadline",
      "type": "error"
    },
    {
      "inputs": [],
      "name": "InvalidDescription",
      "type": "error"
    },
    {
      "inputs": [],
      "name": "NoStakeFound",
      "type": "error"
    },
    {
      "inputs": [],
      "name": "NotYourTask",
      "type": "error"
    },
    {
      "inputs": [
        {
          "internalType": "address",
          "name": "owner",
          "type": "address"
        }
      ],
      "name": "OwnableInvalidOwner",
      "type": "error"
    },
    {
      "inputs": [
        {
          "internalType": "address",
          "name": "account",
          "type": "address"
        }
      ],
      "name": "OwnableUnauthorizedAccount",
      "type": "error"
    },
    {
      "inputs": [],
      "name": "ReentrancyGuardReentrantCall",
      "type": "error"
    },
    {
      "inputs": [],
      "name": "TaskNotFound",
      "type": "error"
    },
    {
      "inputs": [],
      "name": "TransferFailed",
      "type": "error"
    },
    {
      "inputs": [],
      "name": "ZeroAddress",
      "type": "error"
    },
    {
      "anonymous": false,
      "inputs": [
        {
          "indexed": true,
          "internalType": "address",
          "name": "previousOwner",
          "type": "address"
        },
        {
          "indexed": true,
          "internalType": "address",
          "name": "newOwner",
          "type": "address"
        }
      ],
      "name": "OwnershipTransferred",
      "type": "event"
    },
    {
      "anonymous": false,
      "inputs": [
        {
          "indexed": true,
          "internalType": "uint256",
          "name": "taskId",
          "type": "uint256"
        },
        {
          "indexed": true,
          "internalType": "address",
          "name": "user",
          "type": "address"
        }
      ],
      "name": "TaskCompleted",
      "type": "event"
    },
    {
      "anonymous": false,
      "inputs": [
        {
          "indexed": true,
          "internalType": "uint256",
          "name": "taskId",
          "type": "uint256"
        },
        {
          "indexed": true,
          "internalType": "address",
          "name": "user",
          "type": "address"
        },
        {
          "indexed": false,
          "internalType": "string",
          "name": "description",
          "type": "string"
        },
        {
          "indexed": false,
          "internalType": "uint256",
          "name": "deadline",
          "type": "uint256"
        }
      ],
      "name": "TaskCreated",
      "type": "event"
    },
    {
      "anonymous": false,
      "inputs": [
        {
          "indexed": true,
          "internalType": "uint256",
          "name": "taskId",
          "type": "uint256"
        },
        {
          "indexed": true,
          "internalType": "address",
          "name": "user",
          "type": "address"
        },
        {
          "indexed": false,
          "internalType": "uint256",
          "name": "amount",
          "type": "uint256"
        }
      ],
      "name": "TaskFailed",
      "type": "event"
    },
    {
      "anonymous": false,
      "inputs": [
        {
          "indexed": true,
          "internalType": "uint256",
          "name": "taskId",
          "type": "uint256"
        },
        {
          "indexed": true,
          "internalType": "address",
          "name": "user",
          "type": "address"
        },
        {
          "indexed": false,
          "internalType": "uint256",
          "name": "amount",
          "type": "uint256"
        }
      ],
      "name": "TaskStaked",
      "type": "event"
    },
    {
      "anonymous": false,
      "inputs": [
        {
          "indexed": true,
          "internalType": "address",
          "name": "oldTreasury",
          "type": "address"
        },
        {
          "indexed": true,
          "internalType": "address",
          "name": "newTreasury",
          "type": "address"
        }
      ],
      "name": "TreasuryUpdated",
      "type": "event"
    },
    {
      "inputs": [
        {
          "internalType": "uint256",
          "name": "_taskId",
          "type": "uint256"
        }
      ],
      "name": "claimExpiredTask",
      "outputs": [],
      "stateMutability": "nonpayable",
      "type": "function"
    },
    {
      "inputs": [
        {
          "internalType": "uint256",
          "name": "_taskId",
          "type": "uint256"
        }
      ],
      "name": "completeTask",
      "outputs": [],
      "stateMutability": "nonpayable",
      "type": "function"
    },
    {
      "inputs": [
        {
          "internalType": "string",
          "name": "_description",
          "type": "string"
        },
        {
          "internalType": "uint256",
          "name": "_deadline",
          "type": "uint256"
        },
        {
          "internalType": "uint256",
          "name": "_amount",
          "type": "uint256"
        }
      ],
      "name": "createAndStakeTask",
      "outputs": [
        {
          "internalType": "uint256",
          "name": "",
          "type": "uint256"
        }
      ],
      "stateMutability": "nonpayable",
      "type": "function"
    },
    {
      "inputs": [
        {
          "internalType": "string",
          "name": "_description",
          "type": "string"
        },
        {
          "internalType": "uint256",
          "name": "_deadline",
          "type": "uint256"
        }
      ],
      "name": "createTask",
      "outputs": [
        {
          "internalType": "uint256",
          "name": "",
          "type": "uint256"
        }
      ],
      "stateMutability": "nonpayable",
      "type": "function"
    },
    {
      "inputs": [
        {
          "internalType": "uint256[]",
          "name": "_ids",
          "type": "uint256[]"
        }
      ],
      "name": "getTaskDetails",
      "outputs": [
        {
          "components": [
            {
              "internalType": "uint256",
              "name": "id",
              "type": "uint256"
            },
            {
              "internalType": "address",
              "name": "user",
              "type": "address"
            },
            {
              "internalType": "string",
              "name": "description",
              "type": "string"
            },
            {
              "internalType": "uint256",
              "name": "stakeAmount",
              "type": "uint256"
            },
            {
              "internalType": "uint256",
              "name": "deadline",
              "type": "uint256"
            },
            {
              "internalType": "bool",
              "name": "completed",
              "type": "bool"
            },
            {
              "internalType": "bool",
              "name": "claimed",
              "type": "bool"
            }
          ],
          "internalType": "struct StakeToDone.Task[]",
          "name": "",
          "type": "tuple[]"
        }
      ],
      "stateMutability": "view",
      "type": "function"
    },
    {
      "inputs": [
        {
          "internalType": "address",
          "name": "_user",
          "type": "address"
        }
      ],
      "name": "getUserTasks",
      "outputs": [
        {
          "internalType": "uint256[]",
          "name": "",
          "type": "uint256[]"
        }
      ],
      "stateMutability": "view",
      "type": "function"
    },
    {
      "inputs": [],
      "name": "owner",
      "outputs": [
        {
          "internalType": "address",
          "name": "",
          "type": "address"
        }
      ],
      "stateMutability": "view",
      "type": "function"
    },
    {
      "inputs": [],
      "name": "renounceOwnership",
      "outputs": [],
      "stateMutability": "nonpayable",
      "type": "function"
    },
    {
      "inputs": [
        {
          "internalType": "address",
          "name": "_newTreasury",
          "type": "address"
        }
      ],
      "name": "setTreasury",
      "outputs": [],
      "stateMutability": "nonpayable",
      "type": "function"
    },
    {
      "inputs": [
        {
          "internalType": "uint256",
          "name": "_taskId",
          "type": "uint256"
        },
        {
          "internalType": "uint256",
          "name": "_amount",
          "type": "uint256"
        }
      ],
      "name": "stakeTask",
      "outputs": [],
      "stateMutability": "nonpayable",
      "type": "function"
    },
    {
      "inputs": [],
      "name": "stakingToken",
      "outputs": [
        {
          "internalType": "contract IERC20",
          "name": "",
          "type": "address"
        }
      ],
      "stateMutability": "view",
      "type": "function"
    },
    {
      "inputs": [],
      "name": "taskCounter",
      "outputs": [
        {
          "internalType": "uint256",
          "name": "",
          "type": "uint256"
        }
      ],
      "stateMutability": "view",
      "type": "function"
    },
    {
      "inputs": [
        {
          "internalType": "uint256",
          "name": "",
          "type": "uint256"
        }
      ],
      "name": "tasks",
      "outputs": [
        {
          "internalType": "uint256",
          "name": "id",
          "type": "uint256"
        },
        {
          "internalType": "address",
          "name": "user",
          "type": "address"
        },
        {
          "internalType": "string",
          "name": "description",
          "type": "string"
        },
        {
          "internalType": "uint256",
          "name": "stakeAmount",
          "type": "uint256"
        },
        {
          "internalType": "uint256",
          "name": "deadline",
          "type": "uint256"
        },
        {
          "internalType": "bool",
          "name": "completed",
          "type": "bool"
        },
        {
          "internalType": "bool",
          "name": "claimed",
          "type": "bool"
        }
      ],
      "stateMutability": "view",
      "type": "function"
    },
    {
      "inputs": [
        {
          "internalType": "address",
          "name": "newOwner",
          "type": "address"
        }
      ],
      "name": "transferOwnership",
      "outputs": [],
      "stateMutability": "nonpayable",
      "type": "function"
    },
    {
      "inputs": [],
      "name": "treasury",
      "outputs": [
        {
          "internalType": "address",
          "name": "",
          "type": "address"
        }
      ],
      "stateMutability": "view",
      "type": "function"
    },
    {
      "inputs": [
        {
          "internalType": "address",
          "name": "",
          "type": "address"
        },
        {
          "internalType": "uint256",
          "name": "",
          "type": "uint256"
        }
      ],
      "name": "userTasks",
      "outputs": [
        {
          "internalType": "uint256",
          "name": "",
          "type": "uint256"
        }
      ],
      "stateMutability": "view",
      "type": "function"
    }
  ],
  "bytecode": "0x60a06040523480156200001157600080fd5b5060405162002e4f38038062002e4f833981810160405281019062000037919062000368565b3360016200005a6200004e6200020560201b60201c565b6200023060201b60201c565b60000181905550600073ffffffffffffffffffffffffffffffffffffffff168173ffffffffffffffffffffffffffffffffffffffff1603620000d65760006040517f1e4fbdf7000000000000000000000000000000000000000000000000000000008152600401620000cd9190620003c0565b60405180910390fd5b620000e7816200023a60201b60201c565b50600073ffffffffffffffffffffffffffffffffffffffff168273ffffffffffffffffffffffffffffffffffffffff161480620001505750600073ffffffffffffffffffffffffffffffffffffffff168173ffffffffffffffffffffffffffffffffffffffff16145b1562000188576040517fd92e233d00000000000000000000000000000000000000000000000000000000815260040160405180910390fd5b8173ffffffffffffffffffffffffffffffffffffffff1660808173ffffffffffffffffffffffffffffffffffffffff168152505080600160006101000a81548173ffffffffffffffffffffffffffffffffffffffff021916908373ffffffffffffffffffffffffffffffffffffffff1602179055505050620003dd565b60007f9b779b17422d0df92223018b32b4d1fa46e071723d6817e2486d003becc55f0060001b905090565b6000819050919050565b60008060009054906101000a900473ffffffffffffffffffffffffffffffffffffffff169050816000806101000a81548173ffffffffffffffffffffffffffffffffffffffff021916908373ffffffffffffffffffffffffffffffffffffffff1602179055508173ffffffffffffffffffffffffffffffffffffffff168173ffffffffffffffffffffffffffffffffffffffff167f8be0079c531659141344cd1fd0a4f28419497f9722a3daafe3b4186f6b6457e060405160405180910390a35050565b600080fd5b600073ffffffffffffffffffffffffffffffffffffffff82169050919050565b6000620003308262000303565b9050919050565b620003428162000323565b81146200034e57600080fd5b50565b600081519050620003628162000337565b92915050565b60008060408385031215620003825762000381620002fe565b5b6000620003928582860162000351565b9250506020620003a58582860162000351565b9150509250929050565b620003ba8162000323565b82525050565b6000602082019050620003d76000830184620003af565b92915050565b608051612a3a620004156000396000818161075701528181610b5701528181610eeb015281816110e4015261175f0152612a3a6000f3fe608060405234801561001057600080fd5b50600436106101005760003560e01c806372f702f311610097578063cfcd12c911610066578063cfcd12c9146102b5578063e1e29558146102e5578063f0f4426014610301578063f2fde38b1461031d57610100565b806372f702f3146102135780638d977672146102315780638da5cb5b1461026757806395d576601461028557610100565b806359810a3a116100d357806359810a3a1461018b57806361d027b3146101bb57806366873a55146101d9578063715018a61461020957610100565b806304fe2b34146101055780630fd6fc47146101355780631c46aa3d14610151578063586717301461016d575b600080fd5b61011f600480360381019061011a9190611e4b565b610339565b60405161012c9190611eb6565b60405180910390f35b61014f600480360381019061014a9190611ed1565b6105b1565b005b61016b60048036038101906101669190611efe565b6108d2565b005b610175610c87565b6040516101829190611eb6565b60405180910390f35b6101a560048036038101906101a09190611f3e565b610c8d565b6040516101b29190611eb6565b60405180910390f35b6101c3611077565b6040516101d09190611fee565b60405180910390f35b6101f360048036038101906101ee9190612035565b61109d565b6040516102009190611eb6565b60405180910390f35b6102116110ce565b005b61021b6110e2565b60405161022891906120d4565b60405180910390f35b61024b60048036038101906102469190611ed1565b611106565b60405161025e9796959493929190612189565b60405180910390f35b61026f61120a565b60405161027c9190611fee565b60405180910390f35b61029f600480360381019061029a91906121ff565b611233565b6040516102ac91906122ea565b60405180910390f35b6102cf60048036038101906102ca919061236c565b6112ca565b6040516102dc919061257f565b60405180910390f35b6102ff60048036038101906102fa9190611ed1565b6114e4565b005b61031b600480360381019061031691906121ff565b611885565b005b610337600480360381019061033291906121ff565b6119b9565b005b600080835103610375576040517f40132f1f00000000000000000000000000000000000000000000000000000000815260040160405180910390fd5b4282116103ae576040517f769d11e400000000000000000000000000000000000000000000000000000000815260040160405180910390fd5b600260008154809291906103c1906125d0565b91905055506040518060e0016040528060025481526020013373ffffffffffffffffffffffffffffffffffffffff16815260200184815260200160008152602001838152602001600015158152602001600015158152506003600060025481526020019081526020016000206000820151816000015560208201518160010160006101000a81548173ffffffffffffffffffffffffffffffffffffffff021916908373ffffffffffffffffffffffffffffffffffffffff1602179055506040820151816002019081610493919061281a565b50606082015181600301556080820151816004015560a08201518160050160006101000a81548160ff02191690831515021790555060c08201518160050160016101000a81548160ff021916908315150217905550905050600460003373ffffffffffffffffffffffffffffffffffffffff1673ffffffffffffffffffffffffffffffffffffffff16815260200190815260200160002060025490806001815401808255809150506001900390600052602060002001600090919091909150553373ffffffffffffffffffffffffffffffffffffffff166002547f9e3c9757475c00b86393e183b68033bb76e48fa164849c7428ad17f62e1954a7858560405161059e9291906128ec565b60405180910390a3600254905092915050565b6105b9611a3f565b6000600360008381526020019081526020016000209050600073ffffffffffffffffffffffffffffffffffffffff168160010160009054906101000a900473ffffffffffffffffffffffffffffffffffffffff1673ffffffffffffffffffffffffffffffffffffffff160361065a576040517fc325ae3300000000000000000000000000000000000000000000000000000000815260040160405180910390fd5b8060050160009054906101000a900460ff168061068557508060050160019054906101000a900460ff165b156106bc576040517f57eee76600000000000000000000000000000000000000000000000000000000815260040160405180910390fd5b80600401544210156106fa576040517f66ec4ee600000000000000000000000000000000000000000000000000000000815260040160405180910390fd5b6000816003015403610738576040517f59be8f0200000000000000000000000000000000000000000000000000000000815260040160405180910390fd5b60018160050160016101000a81548160ff0219169083151502179055507f000000000000000000000000000000000000000000000000000000000000000073ffffffffffffffffffffffffffffffffffffffff1663a9059cbb600160009054906101000a900473ffffffffffffffffffffffffffffffffffffffff1683600301546040518363ffffffff1660e01b81526004016107d692919061291c565b6020604051808303816000875af11580156107f5573d6000803e3d6000fd5b505050506040513d601f19601f820116820180604052508101906108199190612971565b61084f576040517f90b8ec1800000000000000000000000000000000000000000000000000000000815260040160405180910390fd5b8060010160009054906101000a900473ffffffffffffffffffffffffffffffffffffffff1673ffffffffffffffffffffffffffffffffffffffff16827f8b193d3376a80fbe0e01aa5512fcddf19c1c39f4861538f999e09db95a33581a83600301546040516108be9190611eb6565b60405180910390a3506108cf611a62565b50565b6108da611a3f565b6000600360008481526020019081526020016000209050600073ffffffffffffffffffffffffffffffffffffffff168160010160009054906101000a900473ffffffffffffffffffffffffffffffffffffffff1673ffffffffffffffffffffffffffffffffffffffff160361097b576040517fc325ae3300000000000000000000000000000000000000000000000000000000815260040160405180910390fd5b3373ffffffffffffffffffffffffffffffffffffffff168160010160009054906101000a900473ffffffffffffffffffffffffffffffffffffffff1673ffffffffffffffffffffffffffffffffffffffff1614610a04576040517f4256179300000000000000000000000000000000000000000000000000000000815260040160405180910390fd5b600081600301541115610a43576040517f0ae3514d00000000000000000000000000000000000000000000000000000000815260040160405180910390fd5b8060050160009054906101000a900460ff1615610a8c576040517f195332a500000000000000000000000000000000000000000000000000000000815260040160405180910390fd5b8060050160019054906101000a900460ff1615610ad5576040517f646cf55800000000000000000000000000000000000000000000000000000000815260040160405180910390fd5b42816004015411610b12576040517f70f65caa00000000000000000000000000000000000000000000000000000000815260040160405180910390fd5b60008203610b4c576040517f59be8f0200000000000000000000000000000000000000000000000000000000815260040160405180910390fd5b8181600301819055507f000000000000000000000000000000000000000000000000000000000000000073ffffffffffffffffffffffffffffffffffffffff166323b872dd3330856040518463ffffffff1660e01b8152600401610bb29392919061299e565b6020604051808303816000875af1158015610bd1573d6000803e3d6000fd5b505050506040513d601f19601f82011682018060405250810190610bf59190612971565b610c2b576040517f90b8ec1800000000000000000000000000000000000000000000000000000000815260040160405180910390fd5b3373ffffffffffffffffffffffffffffffffffffffff16837f4dffb625dfeb62d8e64ab465851516cc43955bd6e32121318031ce6e9f93e36c84604051610c729190611eb6565b60405180910390a350610c83611a62565b5050565b60025481565b6000610c97611a3f565b6000845103610cd2576040517f40132f1f00000000000000000000000000000000000000000000000000000000815260040160405180910390fd5b428311610d0b576040517f769d11e400000000000000000000000000000000000000000000000000000000815260040160405180910390fd5b60008203610d45576040517f59be8f0200000000000000000000000000000000000000000000000000000000815260040160405180910390fd5b60026000815480929190610d58906125d0565b91905055506040518060e0016040528060025481526020013373ffffffffffffffffffffffffffffffffffffffff168152602001858152602001838152602001848152602001600015158152602001600015158152506003600060025481526020019081526020016000206000820151816000015560208201518160010160006101000a81548173ffffffffffffffffffffffffffffffffffffffff021916908373ffffffffffffffffffffffffffffffffffffffff1602179055506040820151816002019081610e29919061281a565b50606082015181600301556080820151816004015560a08201518160050160006101000a81548160ff02191690831515021790555060c08201518160050160016101000a81548160ff021916908315150217905550905050600460003373ffffffffffffffffffffffffffffffffffffffff1673ffffffffffffffffffffffffffffffffffffffff16815260200190815260200160002060025490806001815401808255809150506001900390600052602060002001600090919091909150557f000000000000000000000000000000000000000000000000000000000000000073ffffffffffffffffffffffffffffffffffffffff166323b872dd3330856040518463ffffffff1660e01b8152600401610f469392919061299e565b6020604051808303816000875af1158015610f65573d6000803e3d6000fd5b505050506040513d601f19601f82011682018060405250810190610f899190612971565b610fbf576040517f90b8ec1800000000000000000000000000000000000000000000000000000000815260040160405180910390fd5b3373ffffffffffffffffffffffffffffffffffffffff166002547f9e3c9757475c00b86393e183b68033bb76e48fa164849c7428ad17f62e1954a7868660405161100a9291906128ec565b60405180910390a33373ffffffffffffffffffffffffffffffffffffffff166002547f4dffb625dfeb62d8e64ab465851516cc43955bd6e32121318031ce6e9f93e36c8460405161105b9190611eb6565b60405180910390a36002549050611070611a62565b9392505050565b600160009054906101000a900473ffffffffffffffffffffffffffffffffffffffff1681565b600460205281600052604060002081815481106110b957600080fd5b90600052602060002001600091509150505481565b6110d6611a7d565b6110e06000611b04565b565b7f000000000000000000000000000000000000000000000000000000000000000081565b60036020528060005260406000206000915090508060000154908060010160009054906101000a900473ffffffffffffffffffffffffffffffffffffffff169080600201805461115590612647565b80601f016020809104026020016040519081016040528092919081815260200182805461118190612647565b80156111ce5780601f106111a3576101008083540402835291602001916111ce565b820191906000526020600020905b8154815290600101906020018083116111b157829003601f168201915b5050505050908060030154908060040154908060050160009054906101000a900460ff16908060050160019054906101000a900460ff16905087565b60008060009054906101000a900473ffffffffffffffffffffffffffffffffffffffff16905090565b6060600460008373ffffffffffffffffffffffffffffffffffffffff1673ffffffffffffffffffffffffffffffffffffffff1681526020019081526020016000208054806020026020016040519081016040528092919081815260200182805480156112be57602002820191906000526020600020905b8154815260200190600101908083116112aa575b50505050509050919050565b606060008383905067ffffffffffffffff8111156112eb576112ea611cea565b5b60405190808252806020026020018201604052801561132457816020015b611311611c64565b8152602001906001900390816113095790505b50905060005b848490508110156114d9576003600086868481811061134c5761134b6129d5565b5b9050602002013581526020019081526020016000206040518060e0016040529081600082015481526020016001820160009054906101000a900473ffffffffffffffffffffffffffffffffffffffff1673ffffffffffffffffffffffffffffffffffffffff1673ffffffffffffffffffffffffffffffffffffffff1681526020016002820180546113dc90612647565b80601f016020809104026020016040519081016040528092919081815260200182805461140890612647565b80156114555780601f1061142a57610100808354040283529160200191611455565b820191906000526020600020905b81548152906001019060200180831161143857829003601f168201915b5050505050815260200160038201548152602001600482015481526020016005820160009054906101000a900460ff161515151581526020016005820160019054906101000a900460ff1615151515815250508282815181106114bb576114ba6129d5565b5b602002602001018190525080806114d1906125d0565b91505061132a565b508091505092915050565b6114ec611a3f565b6000600360008381526020019081526020016000209050600073ffffffffffffffffffffffffffffffffffffffff168160010160009054906101000a900473ffffffffffffffffffffffffffffffffffffffff1673ffffffffffffffffffffffffffffffffffffffff160361158d576040517fc325ae3300000000000000000000000000000000000000000000000000000000815260040160405180910390fd5b3373ffffffffffffffffffffffffffffffffffffffff168160010160009054906101000a900473ffffffffffffffffffffffffffffffffffffffff1673ffffffffffffffffffffffffffffffffffffffff1614611616576040517f4256179300000000000000000000000000000000000000000000000000000000815260040160405180910390fd5b8060050160009054906101000a900460ff161561165f576040517f195332a500000000000000000000000000000000000000000000000000000000815260040160405180910390fd5b8060050160019054906101000a900460ff16156116a8576040517f646cf55800000000000000000000000000000000000000000000000000000000815260040160405180910390fd5b806004015442106116e5576040517f70f65caa00000000000000000000000000000000000000000000000000000000815260040160405180910390fd5b6000816003015403611723576040517f59be8f0200000000000000000000000000000000000000000000000000000000815260040160405180910390fd5b60018160050160006101000a81548160ff02191690831515021790555060018160050160016101000a81548160ff0219169083151502179055507f000000000000000000000000000000000000000000000000000000000000000073ffffffffffffffffffffffffffffffffffffffff1663a9059cbb3383600301546040518363ffffffff1660e01b81526004016117bc92919061291c565b6020604051808303816000875af11580156117db573d6000803e3d6000fd5b505050506040513d601f19601f820116820180604052508101906117ff9190612971565b611835576040517f90b8ec1800000000000000000000000000000000000000000000000000000000815260040160405180910390fd5b3373ffffffffffffffffffffffffffffffffffffffff16827fbb5889c77948badf90e8a5c73d55265e5f5d6e4837a79a78c5669691b897faed60405160405180910390a350611882611a62565b50565b61188d611a7d565b600073ffffffffffffffffffffffffffffffffffffffff168173ffffffffffffffffffffffffffffffffffffffff16036118f3576040517fd92e233d00000000000000000000000000000000000000000000000000000000815260040160405180910390fd5b6000600160009054906101000a900473ffffffffffffffffffffffffffffffffffffffff16905081600160006101000a81548173ffffffffffffffffffffffffffffffffffffffff021916908373ffffffffffffffffffffffffffffffffffffffff1602179055508173ffffffffffffffffffffffffffffffffffffffff168173ffffffffffffffffffffffffffffffffffffffff167f4ab5be82436d353e61ca18726e984e561f5c1cc7c6d38b29d2553c790434705a60405160405180910390a35050565b6119c1611a7d565b600073ffffffffffffffffffffffffffffffffffffffff168173ffffffffffffffffffffffffffffffffffffffff1603611a335760006040517f1e4fbdf7000000000000000000000000000000000000000000000000000000008152600401611a2a9190611fee565b60405180910390fd5b611a3c81611b04565b50565b611a47611bc8565b6002611a59611a54611c09565b611c34565b60000181905550565b6001611a74611a6f611c09565b611c34565b60000181905550565b611a85611c3e565b73ffffffffffffffffffffffffffffffffffffffff16611aa361120a565b73ffffffffffffffffffffffffffffffffffffffff1614611b0257611ac6611c3e565b6040517f118cdaa7000000000000000000000000000000000000000000000000000000008152600401611af99190611fee565b60405180910390fd5b565b60008060009054906101000a900473ffffffffffffffffffffffffffffffffffffffff169050816000806101000a81548173ffffffffffffffffffffffffffffffffffffffff021916908373ffffffffffffffffffffffffffffffffffffffff1602179055508173ffffffffffffffffffffffffffffffffffffffff168173ffffffffffffffffffffffffffffffffffffffff167f8be0079c531659141344cd1fd0a4f28419497f9722a3daafe3b4186f6b6457e060405160405180910390a35050565b611bd0611c46565b15611c07576040517f3ee5aeb500000000000000000000000000000000000000000000000000000000815260040160405180910390fd5b565b60007f9b779b17422d0df92223018b32b4d1fa46e071723d6817e2486d003becc55f0060001b905090565b6000819050919050565b600033905090565b60006002611c5a611c55611c09565b611c34565b6000015414905090565b6040518060e0016040528060008152602001600073ffffffffffffffffffffffffffffffffffffffff1681526020016060815260200160008152602001600081526020016000151581526020016000151581525090565b6000604051905090565b600080fd5b600080fd5b600080fd5b600080fd5b6000601f19601f8301169050919050565b7f4e487b7100000000000000000000000000000000000000000000000000000000600052604160045260246000fd5b611d2282611cd9565b810181811067ffffffffffffffff82111715611d4157611d40611cea565b5b80604052505050565b6000611d54611cbb565b9050611d608282611d19565b919050565b600067ffffffffffffffff821115611d8057611d7f611cea565b5b611d8982611cd9565b9050602081019050919050565b82818337600083830152505050565b6000611db8611db384611d65565b611d4a565b905082815260208101848484011115611dd457611dd3611cd4565b5b611ddf848285611d96565b509392505050565b600082601f830112611dfc57611dfb611ccf565b5b8135611e0c848260208601611da5565b91505092915050565b6000819050919050565b611e2881611e15565b8114611e3357600080fd5b50565b600081359050611e4581611e1f565b92915050565b60008060408385031215611e6257611e61611cc5565b5b600083013567ffffffffffffffff811115611e8057611e7f611cca565b5b611e8c85828601611de7565b9250506020611e9d85828601611e36565b9150509250929050565b611eb081611e15565b82525050565b6000602082019050611ecb6000830184611ea7565b92915050565b600060208284031215611ee757611ee6611cc5565b5b6000611ef584828501611e36565b91505092915050565b60008060408385031215611f1557611f14611cc5565b5b6000611f2385828601611e36565b9250506020611f3485828601611e36565b9150509250929050565b600080600060608486031215611f5757611f56611cc5565b5b600084013567ffffffffffffffff811115611f7557611f74611cca565b5b611f8186828701611de7565b9350506020611f9286828701611e36565b9250506040611fa386828701611e36565b9150509250925092565b600073ffffffffffffffffffffffffffffffffffffffff82169050919050565b6000611fd882611fad565b9050919050565b611fe881611fcd565b82525050565b60006020820190506120036000830184611fdf565b92915050565b61201281611fcd565b811461201d57600080fd5b50565b60008135905061202f81612009565b92915050565b6000806040838503121561204c5761204b611cc5565b5b600061205a85828601612020565b925050602061206b85828601611e36565b9150509250929050565b6000819050919050565b600061209a61209561209084611fad565b612075565b611fad565b9050919050565b60006120ac8261207f565b9050919050565b60006120be826120a1565b9050919050565b6120ce816120b3565b82525050565b60006020820190506120e960008301846120c5565b92915050565b600081519050919050565b600082825260208201905092915050565b60005b8381101561212957808201518184015260208101905061210e565b60008484015250505050565b6000612140826120ef565b61214a81856120fa565b935061215a81856020860161210b565b61216381611cd9565b840191505092915050565b60008115159050919050565b6121838161216e565b82525050565b600060e08201905061219e600083018a611ea7565b6121ab6020830189611fdf565b81810360408301526121bd8188612135565b90506121cc6060830187611ea7565b6121d96080830186611ea7565b6121e660a083018561217a565b6121f360c083018461217a565b98975050505050505050565b60006020828403121561221557612214611cc5565b5b600061222384828501612020565b91505092915050565b600081519050919050565b600082825260208201905092915050565b6000819050602082019050919050565b61226181611e15565b82525050565b60006122738383612258565b60208301905092915050565b6000602082019050919050565b60006122978261222c565b6122a18185612237565b93506122ac83612248565b8060005b838110156122dd5781516122c48882612267565b97506122cf8361227f565b9250506001810190506122b0565b5085935050505092915050565b60006020820190508181036000830152612304818461228c565b905092915050565b600080fd5b600080fd5b60008083601f84011261232c5761232b611ccf565b5b8235905067ffffffffffffffff8111156123495761234861230c565b5b60208301915083602082028301111561236557612364612311565b5b9250929050565b6000806020838503121561238357612382611cc5565b5b600083013567ffffffffffffffff8111156123a1576123a0611cca565b5b6123ad85828601612316565b92509250509250929050565b600081519050919050565b600082825260208201905092915050565b6000819050602082019050919050565b6123ee81611fcd565b82525050565b600082825260208201905092915050565b6000612410826120ef565b61241a81856123f4565b935061242a81856020860161210b565b61243381611cd9565b840191505092915050565b6124478161216e565b82525050565b600060e0830160008301516124656000860182612258565b50602083015161247860208601826123e5565b50604083015184820360408601526124908282612405565b91505060608301516124a56060860182612258565b5060808301516124b86080860182612258565b5060a08301516124cb60a086018261243e565b5060c08301516124de60c086018261243e565b508091505092915050565b60006124f5838361244d565b905092915050565b6000602082019050919050565b6000612515826123b9565b61251f81856123c4565b935083602082028501612531856123d5565b8060005b8581101561256d578484038952815161254e85826124e9565b9450612559836124fd565b925060208a01995050600181019050612535565b50829750879550505050505092915050565b60006020820190508181036000830152612599818461250a565b905092915050565b7f4e487b7100000000000000000000000000000000000000000000000000000000600052601160045260246000fd5b60006125db82611e15565b91507fffffffffffffffffffffffffffffffffffffffffffffffffffffffffffffffff820361260d5761260c6125a1565b5b600182019050919050565b7f4e487b7100000000000000000000000000000000000000000000000000000000600052602260045260246000fd5b6000600282049050600182168061265f57607f821691505b60208210810361267257612671612618565b5b50919050565b60008190508160005260206000209050919050565b60006020601f8301049050919050565b600082821b905092915050565b6000600883026126da7fffffffffffffffffffffffffffffffffffffffffffffffffffffffffffffffff8261269d565b6126e4868361269d565b95508019841693508086168417925050509392505050565b600061271761271261270d84611e15565b612075565b611e15565b9050919050565b6000819050919050565b612731836126fc565b61274561273d8261271e565b8484546126aa565b825550505050565b600090565b61275a61274d565b612765818484612728565b505050565b5b818110156127895761277e600082612752565b60018101905061276b565b5050565b601f8211156127ce5761279f81612678565b6127a88461268d565b810160208510156127b7578190505b6127cb6127c38561268d565b83018261276a565b50505b505050565b600082821c905092915050565b60006127f1600019846008026127d3565b1980831691505092915050565b600061280a83836127e0565b9150826002028217905092915050565b612823826120ef565b67ffffffffffffffff81111561283c5761283b611cea565b5b6128468254612647565b61285182828561278d565b600060209050601f8311600181146128845760008415612872578287015190505b61287c85826127fe565b8655506128e4565b601f19841661289286612678565b60005b828110156128ba57848901518255600182019150602085019450602081019050612895565b868310156128d757848901516128d3601f8916826127e0565b8355505b6001600288020188555050505b505050505050565b600060408201905081810360008301526129068185612135565b90506129156020830184611ea7565b9392505050565b60006040820190506129316000830185611fdf565b61293e6020830184611ea7565b9392505050565b61294e8161216e565b811461295957600080fd5b50565b60008151905061296b81612945565b92915050565b60006020828403121561298757612986611cc5565b5b60006129958482850161295c565b91505092915050565b60006060820190506129b36000830186611fdf565b6129c06020830185611fdf565b6129cd6040830184611ea7565b949350505050565b7f4e487b7100000000000000000000000000000000000000000000000000000000600052603260045260246000fdfea2646970667358221220e8d52db303e4b8049b0d571bc174f64711e370e850e7b9d10f420bcb3f3895bd64736f6c63430008140033",
  "linkReferences": {},
  "deployedLinkReferences": {}
}