{
  "_format": "hh-sol-artifact-1",
  "contractName": "StakeToDonePure",
  "sourceName": "contracts/StakeToDonePure.sol",
  "abi": [
    {
      "inputs": [
        {
          "internalType": "address",
          "name": "_treasury",
          "type": "address"
        }
      ],
      "stateMutability": "nonpayable",
      "type": "constructor"
    },
    {
      "inputs": [],
      "name": "AlreadyClaimed",
      "type": "error"
    },
    {
      "inputs": [],
      "name": "AlreadyCompleted",
      "type": "error"
    },
    {
      "inputs": [],
      "name": "AlreadyProcessed",
      "type": "error"
    },
    {
      "inputs": [],
      "name": "DeadlineNotReached",
      "type": "error"
    },
    {
      "inputs": [],
      "name": "DeadlinePassed",
      "type": "error"
    },
    {
      "inputs": [],
      "name": "InvalidDeadline",
      "type": "error"
    },
    {
      "inputs": [],
      "name": "InvalidDescription",
      "type": "error"
    },
    {
      "inputs": [],
      "name": "NoStakeFound",
      "type": "error"
    },
    {
      "inputs": [],
      "name": "NotYourTask",
      "type": "error"
    },
    {
      "inputs": [
        {
          "internalType": "address",
          "name": "owner",
          "type": "address"
        }
      ],
      "name": "OwnableInvalidOwner",
      "type": "error"
    },
    {
      "inputs": [
        {
          "internalType": "address",
          "name": "account",
          "type": "address"
        }
      ],
      "name": "OwnableUnauthorizedAccount",
      "type": "error"
    },
    {
      "inputs": [],
      "name": "ReentrancyGuardReentrantCall",
      "type": "error"
    },
    {
      "inputs": [],
      "name": "TaskNotFound",
      "type": "error"
    },
    {
      "inputs": [],
      "name": "TransferFailed",
      "type": "error"
    },
    {
      "inputs": [],
      "name": "ZeroAddress",
      "type": "error"
    },
    {
      "anonymous": false,
      "inputs": [
        {
          "indexed": true,
          "internalType": "address",
          "name": "previousOwner",
          "type": "address"
        },
        {
          "indexed": true,
          "internalType": "address",
          "name": "newOwner",
          "type": "address"
        }
      ],
      "name": "OwnershipTransferred",
      "type": "event"
    },
    {
      "anonymous": false,
      "inputs": [
        {
          "indexed": true,
          "internalType": "uint256",
          "name": "taskId",
          "type": "uint256"
        },
        {
          "indexed": true,
          "internalType": "address",
          "name": "user",
          "type": "address"
        }
      ],
      "name": "TaskCompleted",
      "type": "event"
    },
    {
      "anonymous": false,
      "inputs": [
        {
          "indexed": true,
          "internalType": "uint256",
          "name": "taskId",
          "type": "uint256"
        },
        {
          "indexed": true,
          "internalType": "address",
          "name": "user",
          "type": "address"
        },
        {
          "indexed": false,
          "internalType": "string",
          "name": "description",
          "type": "string"
        },
        {
          "indexed": false,
          "internalType": "uint256",
          "name": "deadline",
          "type": "uint256"
        },
        {
          "indexed": false,
          "internalType": "uint256",
          "name": "amount",
          "type": "uint256"
        }
      ],
      "name": "TaskCreated",
      "type": "event"
    },
    {
      "anonymous": false,
      "inputs": [
        {
          "indexed": true,
          "internalType": "uint256",
          "name": "taskId",
          "type": "uint256"
        },
        {
          "indexed": true,
          "internalType": "address",
          "name": "user",
          "type": "address"
        },
        {
          "indexed": false,
          "internalType": "uint256",
          "name": "amount",
          "type": "uint256"
        }
      ],
      "name": "TaskFailed",
      "type": "event"
    },
    {
      "anonymous": false,
      "inputs": [
        {
          "indexed": true,
          "internalType": "address",
          "name": "oldTreasury",
          "type": "address"
        },
        {
          "indexed": true,
          "internalType": "address",
          "name": "newTreasury",
          "type": "address"
        }
      ],
      "name": "TreasuryUpdated",
      "type": "event"
    },
    {
      "inputs": [
        {
          "internalType": "uint256",
          "name": "_taskId",
          "type": "uint256"
        }
      ],
      "name": "claimExpiredTask",
      "outputs": [],
      "stateMutability": "nonpayable",
      "type": "function"
    },
    {
      "inputs": [
        {
          "internalType": "uint256",
          "name": "_taskId",
          "type": "uint256"
        }
      ],
      "name": "completeTask",
      "outputs": [],
      "stateMutability": "nonpayable",
      "type": "function"
    },
    {
      "inputs": [
        {
          "internalType": "string",
          "name": "_description",
          "type": "string"
        },
        {
          "internalType": "uint256",
          "name": "_deadline",
          "type": "uint256"
        }
      ],
      "name": "createAndStakeTask",
      "outputs": [
        {
          "internalType": "uint256",
          "name": "",
          "type": "uint256"
        }
      ],
      "stateMutability": "payable",
      "type": "function"
    },
    {
      "inputs": [
        {
          "internalType": "uint256[]",
          "name": "_ids",
          "type": "uint256[]"
        }
      ],
      "name": "getTaskDetails",
      "outputs": [
        {
          "components": [
            {
              "internalType": "uint256",
              "name": "id",
              "type": "uint256"
            },
            {
              "internalType": "address",
              "name": "user",
              "type": "address"
            },
            {
              "internalType": "string",
              "name": "description",
              "type": "string"
            },
            {
              "internalType": "uint256",
              "name": "stakeAmount",
              "type": "uint256"
            },
            {
              "internalType": "uint256",
              "name": "deadline",
              "type": "uint256"
            },
            {
              "internalType": "bool",
              "name": "completed",
              "type": "bool"
            },
            {
              "internalType": "bool",
              "name": "claimed",
              "type": "bool"
            }
          ],
          "internalType": "struct StakeToDonePure.Task[]",
          "name": "",
          "type": "tuple[]"
        }
      ],
      "stateMutability": "view",
      "type": "function"
    },
    {
      "inputs": [
        {
          "internalType": "address",
          "name": "_user",
          "type": "address"
        }
      ],
      "name": "getUserTasks",
      "outputs": [
        {
          "internalType": "uint256[]",
          "name": "",
          "type": "uint256[]"
        }
      ],
      "stateMutability": "view",
      "type": "function"
    },
    {
      "inputs": [],
      "name": "owner",
      "outputs": [
        {
          "internalType": "address",
          "name": "",
          "type": "address"
        }
      ],
      "stateMutability": "view",
      "type": "function"
    },
    {
      "inputs": [],
      "name": "renounceOwnership",
      "outputs": [],
      "stateMutability": "nonpayable",
      "type": "function"
    },
    {
      "inputs": [
        {
          "internalType": "address",
          "name": "_newTreasury",
          "type": "address"
        }
      ],
      "name": "setTreasury",
      "outputs": [],
      "stateMutability": "nonpayable",
      "type": "function"
    },
    {
      "inputs": [],
      "name": "taskCounter",
      "outputs": [
        {
          "internalType": "uint256",
          "name": "",
          "type": "uint256"
        }
      ],
      "stateMutability": "view",
      "type": "function"
    },
    {
      "inputs": [
        {
          "internalType": "uint256",
          "name": "",
          "type": "uint256"
        }
      ],
      "name": "tasks",
      "outputs": [
        {
          "internalType": "uint256",
          "name": "id",
          "type": "uint256"
        },
        {
          "internalType": "address",
          "name": "user",
          "type": "address"
        },
        {
          "internalType": "string",
          "name": "description",
          "type": "string"
        },
        {
          "internalType": "uint256",
          "name": "stakeAmount",
          "type": "uint256"
        },
        {
          "internalType": "uint256",
          "name": "deadline",
          "type": "uint256"
        },
        {
          "internalType": "bool",
          "name": "completed",
          "type": "bool"
        },
        {
          "internalType": "bool",
          "name": "claimed",
          "type": "bool"
        }
      ],
      "stateMutability": "view",
      "type": "function"
    },
    {
      "inputs": [
        {
          "internalType": "address",
          "name": "newOwner",
          "type": "address"
        }
      ],
      "name": "transferOwnership",
      "outputs": [],
      "stateMutability": "nonpayable",
      "type": "function"
    },
    {
      "inputs": [],
      "name": "treasury",
      "outputs": [
        {
          "internalType": "address",
          "name": "",
          "type": "address"
        }
      ],
      "stateMutability": "view",
      "type": "function"
    },
    {
      "inputs": [
        {
          "internalType": "address",
          "name": "",
          "type": "address"
        },
        {
          "internalType": "uint256",
          "name": "",
          "type": "uint256"
        }
      ],
      "name": "userTasks",
      "outputs": [
        {
          "internalType": "uint256",
          "name": "",
          "type": "uint256"
        }
      ],
      "stateMutability": "view",
      "type": "function"
    },
    {
      "stateMutability": "payable",
      "type": "receive"
    }
  ],
  "bytecode": "0x60806040523480156200001157600080fd5b5060405162002448380380620024488339818101604052810190620000379190620002fa565b3360016200005a6200004e6200019760201b60201c565b620001c260201b60201c565b60000181905550600073ffffffffffffffffffffffffffffffffffffffff168173ffffffffffffffffffffffffffffffffffffffff1603620000d65760006040517f1e4fbdf7000000000000000000000000000000000000000000000000000000008152600401620000cd91906200033d565b60405180910390fd5b620000e781620001cc60201b60201c565b50600073ffffffffffffffffffffffffffffffffffffffff168173ffffffffffffffffffffffffffffffffffffffff16036200014f576040517fd92e233d00000000000000000000000000000000000000000000000000000000815260040160405180910390fd5b80600160006101000a81548173ffffffffffffffffffffffffffffffffffffffff021916908373ffffffffffffffffffffffffffffffffffffffff160217905550506200035a565b60007f9b779b17422d0df92223018b32b4d1fa46e071723d6817e2486d003becc55f0060001b905090565b6000819050919050565b60008060009054906101000a900473ffffffffffffffffffffffffffffffffffffffff169050816000806101000a81548173ffffffffffffffffffffffffffffffffffffffff021916908373ffffffffffffffffffffffffffffffffffffffff1602179055508173ffffffffffffffffffffffffffffffffffffffff168173ffffffffffffffffffffffffffffffffffffffff167f8be0079c531659141344cd1fd0a4f28419497f9722a3daafe3b4186f6b6457e060405160405180910390a35050565b600080fd5b600073ffffffffffffffffffffffffffffffffffffffff82169050919050565b6000620002c28262000295565b9050919050565b620002d481620002b5565b8114620002e057600080fd5b50565b600081519050620002f481620002c9565b92915050565b60006020828403121562000313576200031262000290565b5b60006200032384828501620002e3565b91505092915050565b6200033781620002b5565b82525050565b60006020820190506200035460008301846200032c565b92915050565b6120de806200036a6000396000f3fe6080604052600436106100c65760003560e01c80638d9776721161007f578063cfcd12c911610059578063cfcd12c914610280578063e1e29558146102bd578063f0f44260146102e6578063f2fde38b1461030f576100cd565b80638d977672146101d55780638da5cb5b1461021857806395d5766014610243576100cd565b80630fd6fc47146100d257806358671730146100fb57806361d027b31461012657806366873a55146101515780636d16fdd11461018e578063715018a6146101be576100cd565b366100cd57005b600080fd5b3480156100de57600080fd5b506100f960048036038101906100f4919061152d565b610338565b005b34801561010757600080fd5b50610110610629565b60405161011d9190611569565b60405180910390f35b34801561013257600080fd5b5061013b61062f565b60405161014891906115c5565b60405180910390f35b34801561015d57600080fd5b506101786004803603810190610173919061160c565b610655565b6040516101859190611569565b60405180910390f35b6101a860048036038101906101a39190611792565b610686565b6040516101b59190611569565b60405180910390f35b3480156101ca57600080fd5b506101d361094a565b005b3480156101e157600080fd5b506101fc60048036038101906101f7919061152d565b61095e565b60405161020f9796959493929190611888565b60405180910390f35b34801561022457600080fd5b5061022d610a62565b60405161023a91906115c5565b60405180910390f35b34801561024f57600080fd5b5061026a600480360381019061026591906118fe565b610a8b565b60405161027791906119e9565b60405180910390f35b34801561028c57600080fd5b506102a760048036038101906102a29190611a6b565b610b22565b6040516102b49190611c7e565b60405180910390f35b3480156102c957600080fd5b506102e460048036038101906102df919061152d565b610d3c565b005b3480156102f257600080fd5b5061030d600480360381019061030891906118fe565b6110ad565b005b34801561031b57600080fd5b50610336600480360381019061033191906118fe565b6111e1565b005b610340611267565b6000600360008381526020019081526020016000209050600073ffffffffffffffffffffffffffffffffffffffff168160010160009054906101000a900473ffffffffffffffffffffffffffffffffffffffff1673ffffffffffffffffffffffffffffffffffffffff16036103e1576040517fc325ae3300000000000000000000000000000000000000000000000000000000815260040160405180910390fd5b8060050160009054906101000a900460ff168061040c57508060050160019054906101000a900460ff165b15610443576040517f57eee76600000000000000000000000000000000000000000000000000000000815260040160405180910390fd5b8060040154421015610481576040517f66ec4ee600000000000000000000000000000000000000000000000000000000815260040160405180910390fd5b60008160030154036104bf576040517f59be8f0200000000000000000000000000000000000000000000000000000000815260040160405180910390fd5b60018160050160016101000a81548160ff0219169083151502179055506000600160009054906101000a900473ffffffffffffffffffffffffffffffffffffffff1673ffffffffffffffffffffffffffffffffffffffff16826003015460405161052890611cd1565b60006040518083038185875af1925050503d8060008114610565576040519150601f19603f3d011682016040523d82523d6000602084013e61056a565b606091505b50509050806105a5576040517f90b8ec1800000000000000000000000000000000000000000000000000000000815260040160405180910390fd5b8160010160009054906101000a900473ffffffffffffffffffffffffffffffffffffffff1673ffffffffffffffffffffffffffffffffffffffff16837f8b193d3376a80fbe0e01aa5512fcddf19c1c39f4861538f999e09db95a33581a84600301546040516106149190611569565b60405180910390a3505061062661128a565b50565b60025481565b600160009054906101000a900473ffffffffffffffffffffffffffffffffffffffff1681565b6004602052816000526040600020818154811061067157600080fd5b90600052602060002001600091509150505481565b6000610690611267565b60008351036106cb576040517f40132f1f00000000000000000000000000000000000000000000000000000000815260040160405180910390fd5b428211610704576040517f769d11e400000000000000000000000000000000000000000000000000000000815260040160405180910390fd5b6000340361073e576040517f59be8f0200000000000000000000000000000000000000000000000000000000815260040160405180910390fd5b6002600081548092919061075190611d15565b91905055506040518060e0016040528060025481526020013373ffffffffffffffffffffffffffffffffffffffff168152602001848152602001348152602001838152602001600015158152602001600015158152506003600060025481526020019081526020016000206000820151816000015560208201518160010160006101000a81548173ffffffffffffffffffffffffffffffffffffffff021916908373ffffffffffffffffffffffffffffffffffffffff16021790555060408201518160020190816108229190611f69565b50606082015181600301556080820151816004015560a08201518160050160006101000a81548160ff02191690831515021790555060c08201518160050160016101000a81548160ff021916908315150217905550905050600460003373ffffffffffffffffffffffffffffffffffffffff1673ffffffffffffffffffffffffffffffffffffffff16815260200190815260200160002060025490806001815401808255809150506001900390600052602060002001600090919091909150553373ffffffffffffffffffffffffffffffffffffffff166002547fdac01f3886a95e591b6ebef63858e5383c5f85b170876b4e18f380599b0a68a585853460405161092f9392919061203b565b60405180910390a3600254905061094461128a565b92915050565b6109526112a5565b61095c600061132c565b565b60036020528060005260406000206000915090508060000154908060010160009054906101000a900473ffffffffffffffffffffffffffffffffffffffff16908060020180546109ad90611d8c565b80601f01602080910402602001604051908101604052809291908181526020018280546109d990611d8c565b8015610a265780601f106109fb57610100808354040283529160200191610a26565b820191906000526020600020905b815481529060010190602001808311610a0957829003601f168201915b5050505050908060030154908060040154908060050160009054906101000a900460ff16908060050160019054906101000a900460ff16905087565b60008060009054906101000a900473ffffffffffffffffffffffffffffffffffffffff16905090565b6060600460008373ffffffffffffffffffffffffffffffffffffffff1673ffffffffffffffffffffffffffffffffffffffff168152602001908152602001600020805480602002602001604051908101604052809291908181526020018280548015610b1657602002820191906000526020600020905b815481526020019060010190808311610b02575b50505050509050919050565b606060008383905067ffffffffffffffff811115610b4357610b42611667565b5b604051908082528060200260200182016040528015610b7c57816020015b610b6961148c565b815260200190600190039081610b615790505b50905060005b84849050811015610d315760036000868684818110610ba457610ba3612079565b5b9050602002013581526020019081526020016000206040518060e0016040529081600082015481526020016001820160009054906101000a900473ffffffffffffffffffffffffffffffffffffffff1673ffffffffffffffffffffffffffffffffffffffff1673ffffffffffffffffffffffffffffffffffffffff168152602001600282018054610c3490611d8c565b80601f0160208091040260200160405190810160405280929190818152602001828054610c6090611d8c565b8015610cad5780601f10610c8257610100808354040283529160200191610cad565b820191906000526020600020905b815481529060010190602001808311610c9057829003601f168201915b5050505050815260200160038201548152602001600482015481526020016005820160009054906101000a900460ff161515151581526020016005820160019054906101000a900460ff161515151581525050828281518110610d1357610d12612079565b5b60200260200101819052508080610d2990611d15565b915050610b82565b508091505092915050565b610d44611267565b6000600360008381526020019081526020016000209050600073ffffffffffffffffffffffffffffffffffffffff168160010160009054906101000a900473ffffffffffffffffffffffffffffffffffffffff1673ffffffffffffffffffffffffffffffffffffffff1603610de5576040517fc325ae3300000000000000000000000000000000000000000000000000000000815260040160405180910390fd5b3373ffffffffffffffffffffffffffffffffffffffff168160010160009054906101000a900473ffffffffffffffffffffffffffffffffffffffff1673ffffffffffffffffffffffffffffffffffffffff1614610e6e576040517f4256179300000000000000000000000000000000000000000000000000000000815260040160405180910390fd5b8060050160009054906101000a900460ff1615610eb7576040517f195332a500000000000000000000000000000000000000000000000000000000815260040160405180910390fd5b8060050160019054906101000a900460ff1615610f00576040517f646cf55800000000000000000000000000000000000000000000000000000000815260040160405180910390fd5b80600401544210610f3d576040517f70f65caa00000000000000000000000000000000000000000000000000000000815260040160405180910390fd5b6000816003015403610f7b576040517f59be8f0200000000000000000000000000000000000000000000000000000000815260040160405180910390fd5b60018160050160006101000a81548160ff02191690831515021790555060018160050160016101000a81548160ff02191690831515021790555060003373ffffffffffffffffffffffffffffffffffffffff168260030154604051610fdf90611cd1565b60006040518083038185875af1925050503d806000811461101c576040519150601f19603f3d011682016040523d82523d6000602084013e611021565b606091505b505090508061105c576040517f90b8ec1800000000000000000000000000000000000000000000000000000000815260040160405180910390fd5b3373ffffffffffffffffffffffffffffffffffffffff16837fbb5889c77948badf90e8a5c73d55265e5f5d6e4837a79a78c5669691b897faed60405160405180910390a350506110aa61128a565b50565b6110b56112a5565b600073ffffffffffffffffffffffffffffffffffffffff168173ffffffffffffffffffffffffffffffffffffffff160361111b576040517fd92e233d00000000000000000000000000000000000000000000000000000000815260040160405180910390fd5b6000600160009054906101000a900473ffffffffffffffffffffffffffffffffffffffff16905081600160006101000a81548173ffffffffffffffffffffffffffffffffffffffff021916908373ffffffffffffffffffffffffffffffffffffffff1602179055508173ffffffffffffffffffffffffffffffffffffffff168173ffffffffffffffffffffffffffffffffffffffff167f4ab5be82436d353e61ca18726e984e561f5c1cc7c6d38b29d2553c790434705a60405160405180910390a35050565b6111e96112a5565b600073ffffffffffffffffffffffffffffffffffffffff168173ffffffffffffffffffffffffffffffffffffffff160361125b5760006040517f1e4fbdf700000000000000000000000000000000000000000000000000000000815260040161125291906115c5565b60405180910390fd5b6112648161132c565b50565b61126f6113f0565b600261128161127c611431565b61145c565b60000181905550565b600161129c611297611431565b61145c565b60000181905550565b6112ad611466565b73ffffffffffffffffffffffffffffffffffffffff166112cb610a62565b73ffffffffffffffffffffffffffffffffffffffff161461132a576112ee611466565b6040517f118cdaa700000000000000000000000000000000000000000000000000000000815260040161132191906115c5565b60405180910390fd5b565b60008060009054906101000a900473ffffffffffffffffffffffffffffffffffffffff169050816000806101000a81548173ffffffffffffffffffffffffffffffffffffffff021916908373ffffffffffffffffffffffffffffffffffffffff1602179055508173ffffffffffffffffffffffffffffffffffffffff168173ffffffffffffffffffffffffffffffffffffffff167f8be0079c531659141344cd1fd0a4f28419497f9722a3daafe3b4186f6b6457e060405160405180910390a35050565b6113f861146e565b1561142f576040517f3ee5aeb500000000000000000000000000000000000000000000000000000000815260040160405180910390fd5b565b60007f9b779b17422d0df92223018b32b4d1fa46e071723d6817e2486d003becc55f0060001b905090565b6000819050919050565b600033905090565b6000600261148261147d611431565b61145c565b6000015414905090565b6040518060e0016040528060008152602001600073ffffffffffffffffffffffffffffffffffffffff1681526020016060815260200160008152602001600081526020016000151581526020016000151581525090565b6000604051905090565b600080fd5b600080fd5b6000819050919050565b61150a816114f7565b811461151557600080fd5b50565b60008135905061152781611501565b92915050565b600060208284031215611543576115426114ed565b5b600061155184828501611518565b91505092915050565b611563816114f7565b82525050565b600060208201905061157e600083018461155a565b92915050565b600073ffffffffffffffffffffffffffffffffffffffff82169050919050565b60006115af82611584565b9050919050565b6115bf816115a4565b82525050565b60006020820190506115da60008301846115b6565b92915050565b6115e9816115a4565b81146115f457600080fd5b50565b600081359050611606816115e0565b92915050565b60008060408385031215611623576116226114ed565b5b6000611631858286016115f7565b925050602061164285828601611518565b9150509250929050565b600080fd5b600080fd5b6000601f19601f8301169050919050565b7f4e487b7100000000000000000000000000000000000000000000000000000000600052604160045260246000fd5b61169f82611656565b810181811067ffffffffffffffff821117156116be576116bd611667565b5b80604052505050565b60006116d16114e3565b90506116dd8282611696565b919050565b600067ffffffffffffffff8211156116fd576116fc611667565b5b61170682611656565b9050602081019050919050565b82818337600083830152505050565b6000611735611730846116e2565b6116c7565b90508281526020810184848401111561175157611750611651565b5b61175c848285611713565b509392505050565b600082601f8301126117795761177861164c565b5b8135611789848260208601611722565b91505092915050565b600080604083850312156117a9576117a86114ed565b5b600083013567ffffffffffffffff8111156117c7576117c66114f2565b5b6117d385828601611764565b92505060206117e485828601611518565b9150509250929050565b600081519050919050565b600082825260208201905092915050565b60005b8381101561182857808201518184015260208101905061180d565b60008484015250505050565b600061183f826117ee565b61184981856117f9565b935061185981856020860161180a565b61186281611656565b840191505092915050565b60008115159050919050565b6118828161186d565b82525050565b600060e08201905061189d600083018a61155a565b6118aa60208301896115b6565b81810360408301526118bc8188611834565b90506118cb606083018761155a565b6118d8608083018661155a565b6118e560a0830185611879565b6118f260c0830184611879565b98975050505050505050565b600060208284031215611914576119136114ed565b5b6000611922848285016115f7565b91505092915050565b600081519050919050565b600082825260208201905092915050565b6000819050602082019050919050565b611960816114f7565b82525050565b60006119728383611957565b60208301905092915050565b6000602082019050919050565b60006119968261192b565b6119a08185611936565b93506119ab83611947565b8060005b838110156119dc5781516119c38882611966565b97506119ce8361197e565b9250506001810190506119af565b5085935050505092915050565b60006020820190508181036000830152611a03818461198b565b905092915050565b600080fd5b600080fd5b60008083601f840112611a2b57611a2a61164c565b5b8235905067ffffffffffffffff811115611a4857611a47611a0b565b5b602083019150836020820283011115611a6457611a63611a10565b5b9250929050565b60008060208385031215611a8257611a816114ed565b5b600083013567ffffffffffffffff811115611aa057611a9f6114f2565b5b611aac85828601611a15565b92509250509250929050565b600081519050919050565b600082825260208201905092915050565b6000819050602082019050919050565b611aed816115a4565b82525050565b600082825260208201905092915050565b6000611b0f826117ee565b611b198185611af3565b9350611b2981856020860161180a565b611b3281611656565b840191505092915050565b611b468161186d565b82525050565b600060e083016000830151611b646000860182611957565b506020830151611b776020860182611ae4565b5060408301518482036040860152611b8f8282611b04565b9150506060830151611ba46060860182611957565b506080830151611bb76080860182611957565b5060a0830151611bca60a0860182611b3d565b5060c0830151611bdd60c0860182611b3d565b508091505092915050565b6000611bf48383611b4c565b905092915050565b6000602082019050919050565b6000611c1482611ab8565b611c1e8185611ac3565b935083602082028501611c3085611ad4565b8060005b85811015611c6c5784840389528151611c4d8582611be8565b9450611c5883611bfc565b925060208a01995050600181019050611c34565b50829750879550505050505092915050565b60006020820190508181036000830152611c988184611c09565b905092915050565b600081905092915050565b50565b6000611cbb600083611ca0565b9150611cc682611cab565b600082019050919050565b6000611cdc82611cae565b9150819050919050565b7f4e487b7100000000000000000000000000000000000000000000000000000000600052601160045260246000fd5b6000611d20826114f7565b91507fffffffffffffffffffffffffffffffffffffffffffffffffffffffffffffffff8203611d5257611d51611ce6565b5b600182019050919050565b7f4e487b7100000000000000000000000000000000000000000000000000000000600052602260045260246000fd5b60006002820490506001821680611da457607f821691505b602082108103611db757611db6611d5d565b5b50919050565b60008190508160005260206000209050919050565b60006020601f8301049050919050565b600082821b905092915050565b600060088302611e1f7fffffffffffffffffffffffffffffffffffffffffffffffffffffffffffffffff82611de2565b611e298683611de2565b95508019841693508086168417925050509392505050565b6000819050919050565b6000611e66611e61611e5c846114f7565b611e41565b6114f7565b9050919050565b6000819050919050565b611e8083611e4b565b611e94611e8c82611e6d565b848454611def565b825550505050565b600090565b611ea9611e9c565b611eb4818484611e77565b505050565b5b81811015611ed857611ecd600082611ea1565b600181019050611eba565b5050565b601f821115611f1d57611eee81611dbd565b611ef784611dd2565b81016020851015611f06578190505b611f1a611f1285611dd2565b830182611eb9565b50505b505050565b600082821c905092915050565b6000611f4060001984600802611f22565b1980831691505092915050565b6000611f598383611f2f565b9150826002028217905092915050565b611f72826117ee565b67ffffffffffffffff811115611f8b57611f8a611667565b5b611f958254611d8c565b611fa0828285611edc565b600060209050601f831160018114611fd35760008415611fc1578287015190505b611fcb8582611f4d565b865550612033565b601f198416611fe186611dbd565b60005b8281101561200957848901518255600182019150602085019450602081019050611fe4565b868310156120265784890151612022601f891682611f2f565b8355505b6001600288020188555050505b505050505050565b600060608201905081810360008301526120558186611834565b9050612064602083018561155a565b612071604083018461155a565b949350505050565b7f4e487b7100000000000000000000000000000000000000000000000000000000600052603260045260246000fdfea26469706673582212203e6c15b9a7098b984dce3be678ed86af9ff998b318b659cd70e2203a06d62e0864736f6c63430008140033",
  "linkReferences": {},
  "deployedLinkReferences": {}
}